:020000040800F2
:10000000C00900204901000867160008C115000852
:10001000651600088D030008BD19000800000000E7
:100020000000000000000000000000006B16000847
:10003000D303000800000000691600086D160008D0
:100040006301000863010008630100086301000800
:1000500063010008630100086301000863010008F0
:1000600063010008630100086301000863010008E0
:100070006301000863010008910300089D03000864
:1000800063010008630100086301000863010008C0
:1000900063010008630100086301000863010008B0
:1000A00063010008630100086301000863010008A0
:1000B0006301000863010008630100086301000890
:1000C0006301000863010008630100086301000880
:1000D00063010008B119000863010008630100080A
:1000E0006301000863010008630100086301000860
:1000F0006301000863010008630100086301000850
:10010000630100086301000863010008630100083F
:10011000630100086301000863010008630100082F
:10012000630100086301000863010008630100081F
:10013000DFF810D000F018F900480047591A0008FD
:10014000AFF30080C00900200648804706480047FA
:10015000FEE7FEE7FEE7FEE7FEE7FEE7FEE7FEE777
:10016000FEE7FEE7CF1600083101000840EA010370
:100170009B0703D009E008C9121F08C0042AFAD25D
:1001800003E011F8013B00F8013B521EF9D2704721
:10019000D2B201E000F8012B491EFBD270470022C9
:1001A000F6E710B513460A4604461946FFF7F0FF76
:1001B000204610BD421C10F8011B0029FBD1801AFB
:1001C000704710B5002200E0521C835C8C5CA34297
:1001D00001D1002BF8D1D8B2E1B2401A10BD30B530
:1001E00005460020034600E05B1C934205D2EC5C10
:1001F000C85C201A01D1002CF6D130BD80EA010282
:1002000010B502F00043400022D04A001FD0010E7A
:1002100001EB1261C0F35600C2F3560240F4000035
:1002200042F40002A0FB022000047F39140400D035
:10023000401C50EA124001D44000491EC2B20C06D4
:1002400004EBD010401C4008802A02D003E00020BC
:1002500010BD20F00100002900DA0020184310BD75
:1002600030B480EA010202F0004530F0004221F093
:10027000004013D090B1C30DD40DC2F31601C0F3EA
:100280001600E41A41F4000140F400027D3491426A
:1002900001D3641C00E04900002C02DA30BC0020CD
:1002A00070474FF400000023914201D3891A0343A1
:1002B00040084FEA4101F7D151B1914202D14FF0CC
:1002C000004105E002D24FF0010101E06FF00101B1
:1002D00003EBC450284430BC00F00EB8C10F80EAD4
:1002E000E0700844CA079623002100F00EB8962358
:1002F0000022114600F009B80029A8BF7047401C31
:10030000490008BF20F00100704710B4B0FA80FC2B
:1003100000FA0CF050EA010404BF10BC704749B168
:10032000CCF1200421FA04F411FA0CF118BF0121D8
:1003300021430843A3EB0C01CB1D4FEA00614FEAB8
:10034000102042BF002010BC704700EBC350104487
:100350000029A4BF10BC7047401C490008BF20F012
:10036000010010BC70470000064C074D06E0E06835
:1003700040F0010394E8070098471034AC42F6D3EC
:10038000FFF7DAFEB0300008D0300008FEE70000CA
:10039000014800F0DDB80000F0020020014800F044
:1003A000D7B80000AC02002030B590F840500124CE
:1003B000AC40C56B6C60046863604368102B0368D5
:1003C00003D099600068C26030BD9A600068C16067
:1003D00030BD704772B6FEE710B590F821100022CC
:1003E000022905D00421816380F82020012010BD5E
:1003F00001680B6823F00E030B6001680B6823F0A3
:1004000001030B6090F84030C46B012101FA03F343
:10041000636080F8211080F82020104610BD000095
:100420002DE9F05F90F821100024022903D0042167
:100430008163012485E001680A6822F00E020A60E7
:1004400001680A6822F001020A603F4E3E4FB21571
:10045000DFF8F4C0DFF8F090DFF8ECA0DFF8E8B0E8
:10046000DFF8E4E00168783F13011502ACF1640C99
:10047000A9F15009AAF13C0AABF1280BAEF1140E18
:100480004FF48018B14227D9B9420ED0614512D03D
:1004900049451DD0514518D0594518D0714501D155
:1004A000424615E0294EB14201D1012210E0274E0B
:1004B0001436B14201D110220AE0244E2836B1424E
:1004C00006D0224A3C32914201D11A4600E02A4627
:1004D0001E49091F0A602BE0B94213D0614517D0AD
:1004E000494522D051451DD059451DD0714501D1F6
:1004F00042461AE0B14202D14FF0807215E0134E2D
:10050000B14201D1012210E0104E1436B14201D1A6
:1005100010220AE00D4E2836B14206D00B4A3C327A
:10052000914201D11A4600E02A46074980394A60C3
:10053000012180F82110002180F82010416B01B1C9
:1005400088472046BDE8F09F800002400804024032
:100550002DE9F05FC16B0A6801680B68046C4FF00D
:10056000040808FA04F8844D844E854FDFF814C25D
:10057000DFF81492DFF814A2DFF814B2DFF814E207
:1005800018EA020F65D05FEA437862D50A689206DE
:1005900003D40A6822F004020A60DFF8F0814FF405
:1005A0008062016808F1140813011402414524D93E
:1005B000A9420DD0B1420FD0B9421AD0614515D031
:1005C000494515D0514501D1120312E0594501D1D9
:1005D00004220EE0714501D140220AE06D4D143530
:1005E000A94206D06B4A2832914201D11A4600E056
:1005F00022466749091F0A6029E0A94213D0B14287
:1006000015D0B94220D061451BD049451BD051457A
:1006100002D14FF4800217E0414502D14FF08062D1
:1006200012E0594501D104220EE0714501D140226A
:100630000AE0584D1435A94206D0564A2832914254
:1006400001D11A4600E022464B4908394A60C16A86
:1006500071E04FF0020808FA04F818EA020F70D0AF
:100660005FEA83786DD50A68920606D40A6822F09C
:100670000A020A60012180F82110DFF810814FF48E
:100680000072016808F1140813011402414524D9CD
:10069000A9420DD0B1420FD0B9421AD0614515D050
:1006A000494515D0514501D1120312E0594501D1F8
:1006B00002220EE0714501D120220AE0354D1435A9
:1006C000A94206D0334A2832914201D11A4600E0AD
:1006D00022462F49091F0A6029E0A94213D0B142DE
:1006E00015D0B94220D061451BD049451BD051459A
:1006F00002D14FF4001217E0414502D14FF00072D1
:1007000012E0594501D102220EE0714501D12022AB
:100710000AE0204D1435A94206D01E4A28329142E3
:1007200001D11A4600E02246134908394A600021E7
:1007300080F82010816A00291CD0BDE8F05F0847CE
:10074000FFE70825A540154214D01A0712D50A68FC
:1007500022F00E020A6090F84020C36B012101FADA
:1007600002F25A60816380F82110002180F8201085
:10077000016BE0E7BDE8F09F080002401C0002406A
:100780003000024044000240580002406C00024029
:10079000080402401C04024030B560B11A4B0268E4
:1007A00014219A4209D2194B1344B3FBF1F1890089
:1007B000016417490AE0012030BD134B5B4213442A
:1007C000B3FBF1F1890001640F490839C1630221CB
:1007D00080F82110136843F6F0718B43F0E901149F
:1007E0002143D0E902452C43214304692143446954
:1007F000214384692143194311600021416301228F
:1008000042770177084630BD08040240F8FFFDBF7B
:100810000000024070B5044690F820000025012831
:100820000CD0012084F8200094F821600020012ED3
:1008300006D084F820000225284670BD022070BD35
:10084000022684F82160A0632068066826F001066D
:1008500006602046FFF7A8FDE06A002820680168CE
:1008600002D041F00E0106E021F004010160206891
:10087000016841F00A0101602068016841F001014E
:100880000160D9E72DE9F84FDFF8C891002409F19C
:10089000040A0AF1040B23460F270BF1040ED1E0E2
:1008A0000125A54006EA0502AA4276D1DFF8A8C1D3
:1008B0004E68A6EB0C0866452BD00DDC032E34D019
:1008C00005DC36B3012E19D0022E2FD11BE0112EDC
:1008D00016D0122E2AD119E0B8F5881F19D006DCDF
:1008E000B8F5803F15D0B8F5801F1FD111E0B8F5DD
:1008F000001F0ED0B8F5041F18D10AE0CB6815E030
:10090000CB681B1D12E0CB6808330FE0CB680C33BB
:100910000CE08B682BB1012B4FF0080303D045612D
:1009200004E0042302E0056100E00023FF2A01D86F
:10093000064601E000F104064FEA840501D9A5F15D
:100940002005D6F8008007FA05FC28EA0C0803FA0F
:1009500005F548EA0508C6F800804D68ED0070D539
:100960003E4DAE6946F00106AE61AD6924F0030666
:1009700005F0010500953A4D06EB050CDCF8085032
:10098000A607360F07FA06F825EA0805DFF8D4802F
:10099000404503D14FF0000825E052E0DFF8C88061
:1009A000404502D14FF001081DE0DFF8C08040450E
:1009B00002D14FF0020816E0DFF8B480404502D1C2
:1009C0004FF003080FE0DFF8AC80404502D14FF054
:1009D000040808E0DFF8A080404502D14FF0050888
:1009E00001E04FF0060808FA06F848EA0508CCF8D6
:1009F00008804D68D9F80060ED034D4601D51643D7
:100A000000E096432E604D68DAF80060AD0355466D
:100A100001D5164300E096432E604D68DBF8006078
:100A2000ED025D4601D5164300E096432E604D6809
:100A3000DEF80060AD02754601D5164300E096432E
:100A40002E60641C0A681646E2407FF429AFBDE8B8
:100A5000F88F000000040140000011100010024057
:100A60000000014000080140000C0140001001405E
:100A70000014014000180140001C0140014880683A
:100A80007047000004000020024881680278114489
:100A90008160704704000020074810B5016841F0EC
:100AA00010010160032000F06DF8002000F006F84E
:100AB00000F024F8002010BD0020024070B50D4D5C
:100AC00004464FF47A712878B1FBF0F00A490968BE
:100AD000B1FBF0F000F0E4FA48B9102C07D2002284
:100AE0002146501E00F02EF800206C6070BD0120E1
:100AF00070BD00000400002010000020094808B567
:100B0000816941F001018161816901F00101009178
:100B1000C16941F08051C161C06900F0805000900E
:100B200008BD000000100240002809DB00F01F0291
:100B3000012191404009800000F1E020C0F800113F
:100B400070470000F0B40E4B1B680C46C3F3022341
:100B5000C3F10705042D00D90425191D072901D269
:100B6000002300E0DB1E012606FA05F1491E2140A4
:100B700099409E40761E16403143F0BC00F04CBFB9
:100B80000CED00E0064900F0070208684FF6FF038D
:100B9000184040EA0220034A1043086070470000F2
:100BA0000CED00E00000FA052DE9F0470F460500C6
:100BB00061D0434E306800F00700B84209D2306877
:100BC00020F0070038433060306800F00700B8427A
:100BD00051D128683B4C810712D5400703D5606886
:100BE00040F4E06060602878000703D5606840F456
:100BF000605060606068A96820F0F00008436060A1
:100C00002878C00728D06868012810D021680228F9
:100C100010D0890700292EDA616821F00301014311
:100C20006160FFF72BFF804641F288390DE02168B3
:100C30008903EFE78901EDE7FFF720FFA0EB08014B
:100C4000494502D90320BDE8F0876068696800F073
:100C50000C00B0EB810FEFD1306800F00700B84214
:100C60000BD9306820F0070038433060306800F05E
:100C70000700B84201D00120E5E72878400705D5F4
:100C80006068E96820F4E060084360602878000745
:100C900006D56068296920F4605040EAC1006060B0
:100CA00000F038F86168084AC1F30311515CC8408C
:100CB0000649086006480068FFF700FF0020C2E709
:100CC00000200240001002400D2D000810000020FE
:100CD000080000200448054900684968044AC1F337
:100CE0000221515CC84070471000002000100240F3
:100CF0001D2D00080448054900684968044AC1F3ED
:100D0000C221515CC8407047100000200010024012
:100D10001D2D000812A185B00FC98DE80F0014A089
:100D2000144A006804905168134801F00C03042B26
:100D300010D0082B0ED1C1F38343C9031DF8030063
:100D40000AD5516804AAC1F34041515C0A4A504394
:100D5000B0FBF1F005B0704708494843FAE70000DE
:100D600002030405060708090A0B0C0D0E0F1010EC
:100D7000010200000010024000127A0000093D004C
:100D80002DE9F84F040070D02078C04DC00749D03D
:100D90006868C0F38100012807D06868C0F381004B
:100DA000022809D16868C00306D52868800339D5B0
:100DB00060680028E7D035E06068B0F5803F0BD070
:100DC00010B1B0F5A02F11D0286820F48030286031
:100DD000286820F4802002E0286840F480302860F1
:100DE000606890B1FFF74AFE06460AE0286840F4C2
:100DF00080202860F0E700BFFFF740FE801B6428DA
:100E000073D828688003F7D50CE0FFF737FE064655
:100E100005E000BFFFF732FE801B6428F0D8286889
:100E20008003F7D420789A4E80074FF001094FF0E5
:100E3000000839D5686810F00C0F07D06868C0F357
:100E40008100022809D16868C00306D42868800799
:100E500014D52069012808D110E02069B0B1C6F886
:100E60000090FFF70BFE074605E00AE1FFF706FEDC
:100E7000C01B0228C4D828688007F7D52868616994
:100E800020F0F80040EAC10028600DE0C6F80080BC
:100E9000FFF7F4FD074604E0FFF7F0FDC01B022852
:100EA00023D828688007F7D4207800072CD5794804
:100EB000A169D9B1C0F80090FFF7E0FD074604E052
:100EC000FFF7DCFDC01B02280FD8686A8007F7D542
:100ED00071484FF4FA510068B0FBF1F0009000BF88
:100EE0000098411E0091FAD20EE080E0C0F8008028
:100EF000FFF7C4FD074604E0FFF7C0FDC01B022852
:100F000075D8686A8007F7D42078400760D5E8690B
:100F10000027C00008D4E86940F08050E861E86923
:100F2000012700F0805000905C480168C90513D487
:100F30000168834641F480710160FFF79FFD82469E
:100F400006E000BFFFF79AFDA0EB0A0064284ED828
:100F5000DBF80000C005F5D5E06801280AD008B12B
:100F6000052813D0286A20F001002862286A20F0A2
:100F7000040002E0286A40F001002862E06841F2C3
:100F8000883B98B1FFF77AFD82460BE0286A40F073
:100F900004002862EEE700BFFFF770FDA0EB0A0136
:100FA00059455AD8286A8007F6D50CE0FFF766FD48
:100FB000824605E0FFF762FDA0EB0A0159454CD8D7
:100FC000286A8007F6D41FB1E86920F08050E861F4
:100FD000E06988B36968C1F38101022944D002281D
:100FE000C6F8608004D0FFF749FD044638E034E0DD
:100FF000FFF744FD074604E0FFF740FDC01B022851
:101000002BD828688001F7D4206AB0F5803F05D13D
:101010006868A16820F4003008436860D4E90801DA
:101020000843696821F4741108436860C6F8609049
:10103000FFF724FD044606E025E000BFFFF71EFD94
:10104000001B022809D828688001F7D51BE000BFE3
:10105000FFF714FD001B022802D90320BDE8F88F1A
:1010600028688001F4D40EE00128F7D06868226A6D
:1010700000F48031914204D1616A00F4701088421A
:1010800001D00120EAE70020E8E70000001002405C
:1010900000004242800442421000002000700040E4
:1010A00010B5401EB0F1807F01D3012010BD4FF07C
:1010B000E02460610F21601700F0AEFC0020A06109
:1010C00007202061002010BD70477047F8B5026806
:1010D00004461068D168536910F00F0F4FF00005F7
:1010E00053D003F0010601F4907737435FD0C20775
:1010F00005D0CA0503D5226C42F0010222644207E2
:1011000005D5DA0703D0226C42F00202226482077E
:1011100005D5DA0703D0226C42F0040222640207EC
:1011200007D501F02002324303D0226C42F00802BE
:101130002264226C002A34D0800604D5880602D5A9
:10114000204600F02FFB20684069216CC0F380101E
:10115000090700D430B3204600F003FB2068416942
:1011600049061BD5416921F040014161A06BA8B13E
:1011700058494163A06BFFF753F9002811D0A06BC9
:10118000416B01B0BDE8F040084783060FD58B06E0
:101190000DD52046BDE8F84000F004BB2046FFF71F
:1011A00094FFF8BD2046FFF790FF2564F8BD266B3D
:1011B0002023012E52D1C60650D5CE064ED510683A
:1011C00050680090506940062AD5A16B08684068B5
:1011D0000004000CEAD0A68D8642E7D9E085886934
:1011E000202818D0D06820F48070D0602068416931
:1011F00021F0010141612068416921F04001416114
:1012000084F83E3025632068C16821F01001C16078
:10121000A06BFFF7E1F8A08DE18D401A81B219E0D3
:10122000A08DE18D401A81B2E08D0028BED000294A
:10123000BCD0D06820F49070D0602068426922F061
:101240000102426184F83E3025632068C26822F0C2
:101250001002C2602046FFF737FFF8BD05062BD508
:101260000D0629D594F83D002128F6D1A068B0F5E7
:10127000805F01D12069B0B1206A411C21622168E0
:1012800000784860E08C401E0004000CE084E4D14B
:101290002068C16821F08001C1602068C16841F008
:1012A0004001C160F8BD206A0088C0F308005060AA
:1012B000206A801C2062E5E74006F3D54806F1D598
:1012C000D168204621F04001D16084F83D3000F023
:1012D00075F9F8BDD116000870B5040004D094F873
:1012E0003D00002510B106E0012070BD84F83C509F
:1012F000204600F023F8242084F83D002068C168CF
:1013000021F40051C160204600F0A8FA206801696C
:1013100021F4904101612068416921F02A01416175
:101320002068C16841F40051C1602564202084F820
:101330003D0084F83E00002070BD0000F0B585B08F
:1013400000240646009401940294039400682D49F9
:10135000884254D12C48816941F48041816181697E
:1013600001F480410491816941F004018161806947
:10137000264D00F0040004904FF40070009002200D
:1013800001900320039069462846FFF77BFA281551
:10139000CDE90004694628460294FFF773FA1D4D13
:1013A0001B488027C5E90004C5E902472C616C6130
:1013B000AC612846EC61FFF7EFF908B1FFF70AF8D6
:1013C000B5636E62134D12484435143801C51020C0
:1013D00091C5104845F8104944306C61AC61EC612E
:1013E000FFF7DAF908B1FEF7F5FF75630022114641
:1013F00025206E62FFF7A6FB2520FFF795FB05B0C1
:10140000F0BD00000038014000100240000801401B
:1014100058000240AC02002090F83E30202B0ED144
:1014200059B152B190F83C30012B08D0012380F81B
:101430003C300023036300F06DBA012070470220A6
:101440007047000008B500680B49884212D1016856
:10145000C943090702D40168406800900748017831
:10146000074800F0D9FDBDE80840012203490548BE
:10147000FFF7D2BF08BD0000003801400000002087
:1014800054030020680200202DE9F843044690F838
:101490003D001F4616460D4620284CD1C5B1BEB1B1
:1014A00094F83C00012846D0012084F83C004FF01D
:1014B0000008C4F84080212084F83D00FFF7DEFAE0
:1014C000A6848146E684A068B0F5805F03D004E07E
:1014D0000120BDE8F883206928B12E465FF00005A1
:1014E00084F83C800EE00026FAE78021204600F0D8
:1014F0002CFAA0B9AEB116F8010B21684860E08C57
:10150000401EE084E08C4B464FF00002009700281C
:10151000EBD14FF04001204600F017FA30B1032024
:10152000D7E735F8020BC0F30800E6E7202084F87F
:101530003D000020CDE70220CBE7000070B5044657
:1015400090F83D00202830D169B362B394F83C0094
:1015500001282AD0012084F83C002162A284E28480
:1015600000252564212084F83D00636B10489862B3
:10157000636B1048D862636B0F481863606B134647
:1015800045632668606B321DFFF744F921686FF0F0
:101590004000086084F83C502068416941F08001B7
:1015A0004161002070BD012070BD022070BD0000AF
:1015B0002B17000859170008E116000870477047FC
:1015C000FEE700000D4808B5416941F001014161A5
:1015D0004069002200F00100009011460E20FFF744
:1015E000B1FA0E20FFF7A0FA002211460F20FFF7F4
:1015F000A9FABDE808400F20FFF796BA0010024094
:10160000094808B5816941F010018161816901F0E3
:1016100010010091816941F004018161806900F04D
:101620000400009008BD0000001002400C4810B5F6
:101630000A4901604FF4E1314160002181600C22D0
:10164000C160C0E904128161C161FFF745FE002855
:1016500003D0BDE81040FEF7BDBE10BD003801400C
:1016600068020020FEE7FEE770477047FFF70CBAFC
:1016700030B58FB028216846FEF791FD14210AA8E5
:10168000FEF78DFD01210804CDE90010002402942D
:1016900002250491CDE907504FF4E0100990684607
:1016A000FFF76EFB08B172B6FEE70F20CDE90A0521
:1016B0004FF48060CDE90C4002210AA80E94FFF798
:1016C00073FA002801D072B6FEE70FB030BD704744
:1016D00010B5406A0021C185C184FFF7F6FC10BD3A
:1016E00070B5446A2068406994F83D10C0F3C0109A
:1016F0000025212904D118B1E584204600F049F8DD
:101700002068406994F83E10C0F38010222904D16B
:1017100018B1E585204600F024F8206C40F0100058
:1017200020642046FFF7D1FC70BD10B50146406A29
:101730000968096889060CD40021C18401684A69D6
:1017400022F080024A610068C16841F04001C16036
:1017500010BDFFF733FF10BD10B5406AFFF72FFF34
:1017600010BD0168CA6822F49072CA6001684A69B3
:1017700022F001024A61016B012904D10168CA68A3
:1017800022F01002CA60202180F83E10002101637F
:1017900070470168CA6822F0C002CA60202180F840
:1017A0003D10704708B590F83E10222901D0022064
:1017B00008BD82684FF480539A4201D1016921B17A
:1017C000816A9A421BD04AB10AE00268816A526873
:1017D000C2F308020A80816A891C08E0026972B1BA
:1017E0000268526802F07F020A70816A491C8162B5
:1017F000C18D491E0904090CC18503D019E0026896
:101800005268F1E70168CA6822F02002CA600168E4
:10181000CA6822F48072CA6001684A6922F0010233
:101820004A61202180F83E10016B012903D0FFF7A7
:1018300009FE002008BD002101630168CA6822F08A
:101840001002CA6001680A68D20602D50A684968AF
:101850000091818DFFF738FCEBE7000070B504467E
:1018600000680169E26821F4405111430161216976
:10187000A0680843616908432168CA6841F20C63A3
:101880009A430243CA6020684169A26921F4407109
:10189000114341611E492068884202D1FFF72AFAAC
:1018A00001E0FFF717FA00EBC00101EB00126068DE
:1018B00064218000B2FBF0F3B3FBF1F36FF0180684
:1018C0007343B2FBF0F5B2FBF0F605EB8305322370
:1018D00003EB0515B5FBF1F5B6FBF1F605F0F005E8
:1018E00005EB0615B2FBF0F6B2FBF0F0B0FBF1F041
:1018F0006FF01802504306EB800003EB0010B0FBC2
:10190000F1F0216800F00F002844886070BD0000ED
:101910000038014081628285C28500210164222253
:1019200080F83E2080F83C100168CA6842F480725A
:10193000CA6001684A6942F001024A610068C168F0
:1019400041F02001C160002070472DE9F041984628
:1019500017460E460446069D1DE0681C1BD02DB19F
:10196000FFF78CF8A0EB0800A84214D92068C168E2
:1019700021F4D071C1602068416921F00101416109
:10198000202084F83D0084F83E00002084F83C00CC
:101990000320BDE8F0812068006836EA000004D02A
:1019A0000020B842D9D00020F3E70120F9E7000079
:1019B0000148FFF78BBB000068020020FEE7000033
:1019C000064805494FF4007281660549416600F1F9
:1019D0006C0100F01BBC0000FD190008540300203E
:1019E000E51900080A4610B501464FF6FF73024894
:1019F000FFF74AFD002010BD6802002010B50C461C
:101A00000A4601464FF6FF730248FFF73DFD20B23C
:101A100010BD0000680200200907090E002804DB41
:101A200000F1E02080F80014704700F00F0000F192
:101A3000E02080F8141D704702E008C8121F08C19A
:101A4000002AFAD170477047002001E001C1121F3F
:101A5000002AFBD170470000FFF71EF8FFF708FED1
:101A6000FFF7CEFDFFF7AEFDFFF7E0FD01220349D2
:101A70000348FFF7D1FCFFF7A3FFFEE700000020BB
:101A800068020020012100F04BB80A7842B14B787F
:101A900003F00F03082B03D003681B781A4208D009
:101AA00090F86000C00702D14878C00601D5002038
:101AB00070474FF0FF30704710B500F079FA0028FA
:101AC00005D00349896BBDE8104001F0EBB810BDAB
:101AD00014000020F8B505468089E989401A04B24F
:101AE000202607E08DF80060AA6E01216846904725
:101AF000641E24B2002CF5DC297B2846BDE8F840A2
:101B000000F07AB810B500F053FA002803D0BDE811
:101B1000104000F053BC10BD4FF0FF31AFF3008018
:101B2000F8B50446481C03D00023E28912B103E053
:101B30000123FAE701295DD0A089824201D14D1C21
:101B400058D00025824201D1012901D0184613E066
:101B5000521E401EE28180B2A08121690D542046B0
:101B6000BDE8F840012100F047B822691144421E47
:101B7000465C401C8E5400B2A289E189521A82420E
:101B8000F3DCA089401EA081082643B9E089401EED
:101B9000E0818DF80060A26E012168469047A1891E
:101BA00020694554B4F90E5009E020690121405DD7
:101BB0008DF80000A26E684690476D1C2DB2A0897A
:101BC000A842F2DC20208DF80000A26E01216846B8
:101BD0009047A089E189401A401C05B208E000BF87
:101BE0008DF80060A26E0121684690476D1E2DB2EF
:101BF000002DF5DCF8BD000070B50C46054603E08D
:101C000003A1284601F04EF8641EE4B2F8D270BD7C
:101C1000082008004FF0FF3100F078BA10B50446F4
:101C200000F006F82046BDE81040012100F0CCBFCE
:101C300070B504468089002835D0216900251E4EE4
:101C40000D5494F86000C00721D0204600F0AAFA95
:101C5000204600F0D3FCE581A581E08E002822D04B
:101C600016A1204601F01EF800232046A26D6169EE
:101C700000F06CFD010004D02046BDE8704000F08B
:101C800009BD2046B169BDE8704001F00BB820687D
:101C900081682069FEF795FA30B1716B204601F03A
:101CA00001F8A581E58170BD94F8600040F0010065
:101CB00084F860003168F1E7140000200D0A00008C
:101CC000411C00200A785C2A01D0104670474978F0
:101CD0006E290FD004DC3029F8D0622904D105E048
:101CE000722905D0742907D008467047082070472C
:101CF0000D2070470A207047092070472DE9F041F8
:101D00000746002300780A2601221D461C462D287E
:101D100008D000203844002190F800C0BCF1300FFA
:101D200004D01FE04FF0FF320120F3E7417878291B
:101D300007D0582905D0622905D0422903D00221B5
:101D400010E003210EE001210CE000BF90F800C07C
:101D5000BCF12E0F06D190F801C0BCF1000F01D0EC
:101D6000042111E010F801CBBCF1000FEED10129E4
:101D700008D0022903D0032906D1102603E0082643
:101D8000012301E0022602233B44501C02D0002024
:101D900003441FE00120FBE72E2805D0A0F1300707
:101DA000092F03D8F8B20FE0012412E0A0F1610777
:101DB000052F01D8573804E0A0F14107052F02D8BC
:101DC0003738C0B200E0002005FB060504EB8400B4
:101DD00044005B1C18780028DED1042913D194B18B
:101DE0001046FEF77BFA06462046FEF780FA0446C8
:101DF0002846FEF77CFA2146FEF732FA3146BDE866
:101E0000F041FEF7FBB905FB02F0BDE8F0812DE9DA
:101E1000F0410446087827280AD02D2803D0A0F1E5
:101E20003002092A0CD8BDE8F0410846FFF766BF2A
:101E30004A78002AF3D0BDE8F0410846FFF740BFDA
:101E40000026242807D0002816D000270D460C466F
:101E5000222813D01DE04A78002AF6D0002320461D
:101E6000491CA26D00F072FC010004D02046BDE8C0
:101E7000F04100F0B1B83046BDE8F0816C1C254659
:101E800007E05C280BD022280FD0E8557F1CBFB29A
:101E9000641C20780028F4D1EE552846ECE7601E3B
:101EA000FFF70EFFE855641CF0E7EE55EEE72DE96D
:101EB000F0478CB00C46824699461546202103A86F
:101EC000FEF76DF9A0786E1E00F00F07B74200DC38
:101ED000374600250DF10C0808E009EB8500416844
:101EE0005046FFF794FF48F825006D1CB542F4DB1F
:101EF000082F3CD2DFE807F004090D12181E263027
:101F0000A06880470CB0BDE8F087A16803988847B7
:101F1000F8E7DDE90301A2689047F3E703AB93E834
:101F20000700A3689847EDE703ADA46895E80F00A4
:101F3000A047E7E70798009003ADA46895E80F0075
:101F4000A047DFE7DDE90701CDE9000103ADA468A3
:101F500095E80F00A047D5E707AB03AD93E807006E
:101F60008DE8070095E80F00A468A047CAE74FF086
:101F7000FF30C7E7C068704700B500210B4A302327
:101F80005354491CC9B20929FAD3417801F00F0111
:101F9000012903D9072901D9082901D8406800BDC2
:101FA0004068024900F0B8FD004800BD4803002029
:101FB0000849002051F8202032B192F860209207A1
:101FC00002D551F820007047401C00B20528F1DB13
:101FD00000207047340300204A78002002F00F02EE
:101FE000921E062A06D2DFE802F003060A0D0D0F44
:101FF0008868006870478868B0F900007047886892
:1020000000787047886870478868416809B100683F
:1020100008470020704700002DE9F05F5FEA0109E2
:10202000054649D0A86B1824002710F47F4F03D031
:1020300000246FF0FF070AE010F47F0F02D008249D
:10204000274F04E0000E02D010244FF07F470026F7
:10205000B246D5F8588033E008EB061B9BF8010028
:1020600000F00F00092829D159462846FFF70DFD39
:1020700020BBDBF80400AB6B00EA070199421DD1DD
:10208000FF2202FA04F1084009FA04F1884215D14E
:102090000B434FF00009AB6334B1A4F10801DBF846
:1020A00004008A40104209D108EB0610816809B18A
:1020B00028468847C5F838A0BDE8F09F761C36B2A0
:1020C000B5F85C00B042C7DCB9F1000FF4D0494666
:1020D0002846C5F838A0BDE8F05F00F087BA0000D8
:1020E0000000FFFF10B50B460446FFF761FF002814
:1020F0000BD0012C05D008DD5968BDE8104000F078
:1021000037BDBDE8104000F059B910BD70B50025CD
:102110000446002918DDB4F95430A3F10100A4F8F5
:102120005400B4F85010B4F85200814201D90A4664
:1021300000E002465242934212DC814200D9084636
:102140004042A4F854000BE009DAB4F85400401CF3
:1021500000B2A4F85400002802DDA4F8545070BD69
:102160002046FFF7B7FCB4F95400C0B1B4F85210E0
:1021700008440521401D90FBF1F201FB120004EB25
:102180008000C16B206900F017FCA0810028E6D018
:10219000E08120462169BDE8704000F083BDA58143
:1021A000E58170BD70B500250446A0F85450B0F824
:1021B000500058B1B4F85200216900B9052004EB71
:1021C0008000806BFDF7FDFF00281ED0B4F85200A0
:1021D000216904EB8000C06B00F0EEFB20B1B4F885
:1021E0005200401CA4F85200B4F85000401C80B2C9
:1021F000A4F85000052802D90520A4F85000B4F82E
:102200005200052801D3A4F8525070BD10B5044601
:102210000020A081E0810B46206094F8601041F01E
:10222000010184F860100621B2FBF1F12361A1865F
:10223000A4F85400A4F85000A4F85200A28E411C47
:1022400002FB013204EB8000C26308B20528F5DB13
:1022500011481249A065081A0009A4F85C00104949
:10226000002000BF51F820209AB1401C00B2052880
:10227000F8DB00230BA12046A26D00F067FA0146AF
:10228000204600F09BFA2046BDE81040012100F0F6
:102290009BBC41F82040ECE7D03000080032000839
:1022A000340300206C65747465720000F8B5044650
:1022B0008089A28E521E90420EDB32484168204631
:1022C00000F0F0FC0121204600F07EFC2046216950
:1022D000BDE8F84000F0E6BCE2890023824214D158
:1022E0000246256900F10100A081A954A289206954
:1022F0008354E08900F10100E0818DF80010A26EA6
:102300004FF0010168469047F8BDFDD2A0EB0200F6
:1023100000B207E0E58922691544A0F10102AE5C34
:10232000465510B20028F5DCE0892569421CE2819F
:102330002954A0892169401C80B2A0810B54E089F6
:10234000401E05B209E020690121405D8DF80000C2
:10235000A26E684690476D1C2DB2A089A842F2DC9F
:10236000E18980B2401A05B2082607E08DF80060C6
:10237000A26E0121684690476D1E2DB2002DF5DC3E
:10238000F8BD00001400002010B5FFF711FE002872
:1023900003D0BDE8104000F0B1B810BD38B5044618
:1023A000C089002809D008208DF80000A26E012104
:1023B00068469047E089401EE08138BD2DE9F04134
:1023C0000646876D0F488168304600F06BFC00249C
:1023D00012E000BF07EB0415687800F00F00012839
:1023E00008D829463046FFF750FB18B92946304631
:1023F00000F00AF8641C24B2B6F85C00A042E9DCE4
:10240000BDE8F08114000020F8B505460E460846E8
:10241000FFF7B2FD0146284600F044FCC0F116006B
:1024200004B2002C00DC04245FF020078DF800705B
:10243000AA6E012168469047641E24B2002CF5D193
:10244000707800F00F012948012901D8016C0CE0D7
:10245000072901D8416C08E0082901D8816C04E003
:10246000092901D8C16C00E0016D284600F01AFC72
:102470001FA1284600F016FC07240127307807FA30
:1024800004F1084201D0782000E02D208DF80000F2
:10249000AA6E012168469047641E64B2002CEDDAF2
:1024A00013A1284600F0FEFB3046FFF763FDAA6E3D
:1024B00003460021A2B102E0491C89B2401C047805
:1024C0001CB10D2C01D00A2CF6D1242906D92421C7
:1024D00018469047032107A0AA6E00E018469047CF
:1024E0002846BDE8F84004A100F0DCBB1400002041
:1024F000202000002E2E2E000D0A00002DE9F041B4
:102500000646876D10484169304600F0CBFB002439
:1025100014E000BF07EB0415687800F00F000828EE
:102520000AD9092808D829463046FFF7AEFA18B963
:1025300029463046FFF768FF641C24B2B6F85C00F9
:10254000A042E7DCBDE8F081140000202DE9F04155
:102550000646876D10480169304600F0A3FB002451
:1025600014E000BF07EB0415687800F00F0007289F
:102570000AD9082808D829463046FFF786FA18B93C
:1025800029463046FFF740FF641C24B2B6F85C00D1
:10259000A042E7DCBDE8F081140000202DE9F04105
:1025A0000646876D1048C168304600F07BFB00246A
:1025B00013E000BF07EB0415687800F00F00801EE1
:1025C000052808D829463046FFF75FFA18B929468A
:1025D0003046FFF719FF641C24B2B6F85C00A04235
:1025E000E8DCBDE8F08100001400002090F86020D5
:1025F00022F0040280F86020FFF758BE70B5002278
:10260000012311464FEA020400EB8105491C09B27F
:102610006C610829F8DBC486002127E022B905692E
:102620006E5C202E1ED0EEB105696E5C222E01D1AB
:102630001AB10022012B02D00BE00122FAE7C38E6F
:10264000082B05D200EB83065B1C0D44C386756125
:10265000002305696E5C5C2E06D14E1CAD5D1DB17C
:10266000B1B201E06C540123491C89B285898D42C5
:10267000D4D870BD08B5C1898289914209D2036955
:102680004A1CC281595C8DF80010826E0121684697
:10269000904708BD2DE9F047044690F860000F46CA
:1026A00040F0020084F86000497800250A0704F130
:1026B00014090BD001F00F0001282AD0811E052932
:1026C00036D83946204600F00DF937E00025A846F7
:1026D00017E000BF04EB850670690178222904D158
:1026E00080F800807069401C7061FDF763FD80B266
:1026F0007169401E0A5C222A01D101F800806D1C1C
:10270000ADB2E08EA842E5D8BA68E08E494690475F
:1027100005E0E28E4B4639462046FFF7C8FB0546EA
:10272000787880060AD42946204600F07BFA05E036
:10273000082803D13946204600F040F814F8600F0D
:1027400020F0020020702846BDE8F0872DE9F04710
:1027500006468A46B16DB0F85C00511AA0EB111024
:102760009946154687B200241BE000BF05EB04180C
:1027700098F8010000F00F00092810D041463046BB
:10278000FFF783F958B94046FFF7F6FB0146B9F168
:1027900000000BD002465046FDF721FD50B1641CED
:1027A000A4B2BC42E2D30020BDE8F0875046FDF75A
:1027B00008FDF3E705EB0410F6E7000070B50446EA
:1027C000016088680D4600B3FDF7F4FCE8B1E08EC7
:1027D000022804D3A169A868FDF7F3FCA8B194F816
:1027E000600020F0010000BF0B4D84F8600020461F
:1027F000A96B00F057FA94F86000C0070AD0204691
:102800002968BDE8704000F04DBA94F8600040F0CF
:102810000100E9E770BD0000140000202DE9F0413F
:102820000E460746FFF7C4FB041E16D000233946A8
:10283000A26DFFF78BFF0E4D010010D0487800F01D
:102840000F00801E06280CD33946204600F02AFAD5
:10285000696A204600F026FA0020BDE8F081A96AE6
:10286000F7E732462046BDE8F04100F003B800002B
:102870001400002070B50C460546497818484B06F0
:1028800001D5016A18E001F00F01891E062921D245
:10289000DFE801F00306090C1116A068026019E0D8
:1028A000A068028016E0A068027013E01146A068DC
:1028B00000F082F80EE0C169284600F0F3F909E063
:1028C000A068836833B1006810B11146984701E0F1
:1028D0001046984721462846BDE8704000F002B8EF
:1028E00014000020FEB523A20C46064607CA8DE858
:1028F000070021463046FFF76FFB0546304661680A
:1029000000F0D0F91EA1304600F0CCF9607800F05C
:102910000F00052823D06946284600F0D7F8C0F1FB
:102920000B006C460119304600F0BCF915A1304689
:1029300000F0B8F9002130206054491C09B20B297D
:10294000FADB6946284600F0E7F86946304600F0B1
:10295000A9F90EA1304600F0A5F92846FEBD0CA14C
:10296000304600F09FF92946304600F09BF908A157
:10297000ECE7000030303030303030303030300074
:10298000203D20002C203078000000000D0A0000BF
:102990002200000030B504460020024605E0AB42AC
:1029A00009D1401C521C80B292B2A35C002B02D011
:1029B0008D5C002DF3D130BD0246002002E013549F
:1029C000401C80B20B5C002BF9D1002111547047E0
:1029D0002DE9F05FB0F834804FF00009818904469A
:1029E0004D4631B12069CA46564600F801A0A76D90
:1029F0003BE02046FFF7E2FC2046BDE8F05F012106
:102A000000F0E2B807EB06118B462046FFF73DF8D1
:102A100048BB5846FFF7B0FA01462069FFF7BAFFF6
:102A2000A18988421FD1D5B1012D03D126A120460D
:102A300000F038F907EB091949462046FFF7E4FC96
:102A40005846FFF799FA83464846FFF795FA5946E4
:102A5000FFF7A0FF4146804500D8084680466D1C20
:102A60001FFA86F9ADB2761C36B2B4F85C00B042FB
:102A7000C8DC002D26D0012D02D12046FFF72AF810
:102A800007EB09100646FFF777FA01462069FFF7C2
:102A900093FFA081012D09D931462046FFF7B4FCF0
:102AA0000121204600F090F8A4F80C80A289216949
:102AB00001F802A0A089E08120462169BDE8F05F0D
:102AC00000F0F0B8BDE8F09F0D0A000030B50B2211
:102AD000031E00DA43420024CC720A240AE000BF3D
:102AE00093FBF4F504FB153593FBF4F3521ED2B2BD
:102AF00030358D54002BF3D1002802DA4FF02D0031
:102B000002E005D14FF03000A2F10102D2B28854A8
:102B1000C2F10B0040B230BD082200230B720AE064
:102B200000F00F03092B01D9573300E03033521E58
:102B3000D2B200098B540028F2D1C2F1080040B291
:102B400070470121FFF7E2BA10B5FFF731FA00280C
:102B500003D0BDE81040FFF7F9BC10BD10B5FFF77A
:102B600027FA002803D0BDE81040FFF717BD10BDBD
:102B700070B505460023826DFFF7E8FD040010489C
:102B800017D0C16A284600F08DF82046FFF7F4F907
:102B90000146284600F086F80AA1284600F082F88F
:102BA0002046FFF7E7F90146284600F07BF805A12B
:102BB00000E081692846BDE8704000F073B800006D
:102BC000140000200D0A000010B5044690F86000C3
:102BD000C00719D019B10EA1204600F063F8206893
:102BE0004168204600F05EF80AA1204600F05AF83D
:102BF000A16801B908A1204600F054F807A12046B9
:102C0000BDE8104000F04EB80548016BF7E7000042
:102C10000D0A00003A0000002F00000024200000F0
:102C200014000020FEB516A20D46064607CA8DE820
:102C3000070016A1304600F035F869462846FFF730
:102C400045FFC0F10B006C460119304600F02AF830
:102C500011A1304600F026F800223020A054521C6A
:102C600012B20B2AFADB69462846FFF755FF694680
:102C7000304600F017F80AA1304600F013F8FEBD08
:102C80003030303030303030303030005265747594
:102C9000726E3A20000000002C2030780000000006
:102CA0000D0A000010B50B46846E00211A461CB9AF
:102CB000002010BD491C89B212F8010B0028F9D17F
:102CC0001846A04780B210BD10B51322054906482A
:102CD000FDF74CFA4FF4007203490448FEF72EFC4E
:102CE000002010BDF02C00086800002068020020C1
:102CF00069276D2042535039206368616E67652EE5
:102D00000D0A00746573740074657374000000002C
:102D1000000000000001020304060708090000008B
:102D200000010203046C65747465720000646566DA
:102D300061756C7420757365720073657456617289
:102D4000007365742076617200757000646F776E31
:102D5000007269676874006C656674007461620073
:102D60006261636B7370616365006261636B737052
:102D70006163650064656C65746500656E74657299
:102D800000656E7465720068656C700073686F77BB
:102D900020636F6D6D616E6420696E666F0D0A68E9
:102DA000656C70205B636D645D00757365727300A4
:102DB0006C69737420616C6C207573657200636D4F
:102DC0006473006C69737420616C6C20636D6400C3
:102DD00076617273006C69737420616C6C2076612B
:102DE00072006B657973006C69737420616C6C2080
:102DF0006B657900636C65617200636C656172205C
:102E0000636F6E736F6C65000D0A436F6D6D616E5D
:102E100064204C6973743A0D0A0000000D0A566173
:102E200072204C6973743A0D0A0000000D0A557344
:102E30006572204C6973743A0D0A00000D0A4B65E7
:102E400079204C6973743A0D0A000000436F6D6D70
:102E5000616E64206E6F7420466F756E640D0A009B
:102E60000D0A5761726E696E673A20436F6D6D612E
:102E70006E6420697320746F6F206C6F6E670D0A2B
:102E800000000000206973206E6F7420612076615D
:102E9000720D0A0063616E27742073657420726579
:102EA0006164206F6E6C79207661720D0A000000FB
:102EB00063616E27742073657420706F696E74652A
:102EC000720D0A000D0A205F2020202020202020E3
:102ED000205F2020205F2020202020202020202074
:102EE00020202020202020205F20202020202020A3
:102EF0002020205F205F200D0A7C207C20202020C5
:102F00005F5F5F7C207C5F7C207C5F205F5F5F2059
:102F10005F205F5F2020205F5F5F7C207C5F5F2001
:102F200020205F5F5F7C207C207C0D0A7C207C2041
:102F300020202F205F205C205F5F7C205F5F2F20A0
:102F40005F205C20275F5F7C202F205F5F7C202735
:102F50005F205C202F205F205C207C207C0D0A7C81
:102F6000207C5F5F7C20205F5F2F207C5F7C207C4B
:102F70007C20205F5F2F207C202020205C5F5F2052
:102F80005C207C207C207C20205F5F2F207C207CAC
:102F90000D0A7C5F5F5F5F5F5C5F5F5F7C5C5F5FB4
:102FA0007C5C5F5F5C5F5F5F7C5F7C202020207CBF
:102FB0005F5F5F2F5F7C207C5F7C5C5F5F5F7C5F1F
:102FC0007C5F7C0D0A0D0A4275696C643A202020F2
:102FD000202020204E6F76203239203230323120AE
:102FE00032313A33303A31330D0A56657273696FB4
:102FF0006E3A2020202020332E312E320D0A436FCE
:10300000707972696768743A202020286329203219
:10301000303230204C65747465720D0A0000000077
:103020000D0A70617373776F7264206572726F72CC
:103030000D0A0000566172206E6F7420466F756E27
:10304000740D0A001B5B324B0D000000434D442001
:103050000000000056415220000000004B4559205E
:1030600000000000636F6D6D616E642068656C70B8
:10307000206F6620000000000D0A506C65617365CA
:1030800020696E7075742070617373776F72643A23
:10309000000000004E4F4E45000000001B5B324A0E
:1030A0001B5B3148000000005553455200000000F2
:1030B000003200080000002068000000381A0008F4
:1030C000683200086800002058090000481A00080B
:1030D00000010000032D0008C92C0008082D00087D
:1030E00000080000252D00082C2D00082D2D0008BB
:1030F000002100003A2D00081D280008412D00087D
:103100000009000000415B1B432B0008492D00080B
:103110000009000000425B1B151C00084C2D000834
:103120000019000000435B1B75260008512D0008A4
:103130000019000000445B1B9D230008572D000868
:103140000009000000000009D12900085C2D0008DA
:103150000019000000000008851A0008602D000812
:10316000001900000000007F851A00086A2D000881
:10317000001900007E335B1B191B0008742D00082A
:10318000001900000000000A1D1C00087B2D00082B
:10319000001900000000000D1D1C0008812D000812
:1031A00000200000872D0008E52000088C2D000875
:1031B00000210000AA2D0008492B0008B02D0008AE
:1031C00000210000BE2D0008051B0008C32D0008CB
:1031D00000210000D02D00085D2B0008D52D00082F
:1031E00000210000E22D000889230008E72D0008D7
:1031F00000210000F42D0008B91A0008FA2D00087B
:1032000000000000010000001000000000000000AD
:103210000024F400C42E0008602E0008082E0008C8
:103220001C2E00082C2E00083C2E00084C2E0008F6
:10323000B02E0008942E0008842E000834300008B8
:103240006430000878300008203000089C30000806
:10325000443000084C30000854300008A830000802
:083260005C3000089430000806
:0400000508000131BD
:00000001FF
